:100000000C946A000C9431140C9431140C94311437
:100010000C9431140C9431140C9431140C9431144C
:100020000C9431140C9431140C9431140C9431143C
:100030000C9431140C9403110C9431140C9431145D
:100040000C9431140C9431140C9431140C9431141C
:100050000C9431143E10FF0F0210051008100B1005
:100060000E101110141017102C102C102C102C1016
:100070002C102C102C101A101D10201023102610DC
:1000800029102C102C102C102C102C102C102C1093
:100090002C102C102C102C102C102C102C102C1080
:1000A0002C102C102C102C102C102C102C102C1070
:1000B0002C102C102C101A101D102010231026109C
:1000C0002910006000798000790097002866009769
:1000D0000099800011241FBECFE5D8E0DEBFCDBF60
:1000E000E2ECF0E040E017C0B591A5913591259183
:1000F000059107FD0CC095918591EF01F92FE82F2F
:1001000005900D92A217B307D9F7FE0104C01D9206
:10011000A217B307E1F7E33DF40731F70E94D30ECE
:080120000C949200F894FFCF4B
:100128000E040D01020F0B08030A060C050900074F
:10013800000F07040E020D010A060C0B090503083F
:1001480004010E080D06020B0F0C0907030A05002F
:100158000F0C080204090107050B030E0A00060D1F
:100168000F01080E060B03040907020D0C00050A0F
:10017800030D04070F02080E0C00010A06090B05FF
:10018800000E070B0A040D0105080C060903020FEF
:100198000D080A01030F04020B06070C00050E09DF
:1001A8000A00090E06030F05010D0C070B040208CF
:1001B8000D0700090304060A0208050E0C0B0F01BF
:1001C8000D060409080F03000B01020C050A0E07AF
:1001D800010A0D0006090807040F0E030B05020C9F
:1001E800070D0E030006090A010208050B0C040F8F
:1001F8000D080B05060F00030407020C010A0E097F
:100208000A0609000C0B070D0F01030E050208046E
:10021800030F00060A010D080904050B0C07020E5E
:10022800020C0401070A0B060805030F0D000E094E
:100238000E0B020C04070D0105000F0A030908063E
:100248000402010B0A0D07080F090C050603000E2E
:100258000B080C07010E020D060F00090A0405031E
:100268000C010A0F09020608000D03040E07050B0E
:100278000A0F0402070C090506010D0E000B0308FE
:10028800090E0F0502080C030700040A010D0B06EE
:100298000403020C09050F0A0B0E01070600080DDE
:1002A800040B020E0F00080D030C0907050A0601CE
:1002B8000D000B070409010A0E03050C020F0806BE
:1002C80001040B0D0C03070E0A0F060800050902AE
:1002D800060B0D0801040A070905000F0E02030C9E
:1002E8000D020804060F0B010A09030E05000C078E
:1002F800010F0D080A0307040C05060B000E09027E
:10030800070B0401090C0E0200060A0D0F0305086D
:1003180002010E07040A080D0F0C09000305060B5D
:10032800280830103818402027072F0F37173F1F8D
:1003380026062E0E36163E1E25052D0D35153D1D9D
:1003480024042C0C34143C1C23032B0B33133B1BAD
:1003580022022A0A32123A1A2101290931113919BD
:100368003A322A221A120A023C342C241C140C0495
:100378003E362E261E160E06403830282018100845
:1003880039312921191109013B332B231B130B0385
:100398003D352D251D150D053F372F271F170F0735
:1003A80043616E6E6F74206465636F646520746862
:1003B80061742073796D626F6C3A20256300566111
:1003C8006C69646174696E673A2000202E2E46615C
:0D03D800696C65642E00202E2E4F4B2E0008
:1003E50039312921191109013A322A221A120A0230
:1003F5003B332B231B130B033C342C243F372F2774
:100405001F170F073E362E261E160E063D352D25C7
:080415001D150D051C140C045B
:10041D0020010203040504050607080908090A0B53
:10042D000C0D0C0D0E0F10111011121314151415B7
:10043D001617181918191A1B1C1D1C1D1E1F20011B
:10044D000E110B180105031C0F06150A17130C04CA
:10045D001A0810071B140D0229341F252F371E28CB
:10046D00332D21302C31273822352E2A32241D20D0
:10047D00100714151D0C1C11010F171A05121F0A58
:10048D000208180E201B0309130D1E06160B041966
:10049D0077656C636F6D65004D4153534147455F03
:0304AD00495300B0
:1004B000456E636F64656420004465636F646564C2
:0204C00020001A
:1004C200010102020202020201020202020202010E
:1004D2002F923F924F925F926F927F928F929F9252
:1004E200AF92BF92CF92DF92EF92FF920F931F9340
:1004F200CF93DF93CDB7DEB7C85CD1090FB6F894BE
:10050200DEBF0FBECDBF5B01C82E8A01C953DF4FCC
:1005120039832883C75CD0400F2EF8E66F2EF3E0B4
:100522007F2EF0E08F2EF02DE12CF12CF30144917F
:1005320087FC40812FEF621A720A820A50E0415012
:1005420051098C2DB5010E947A12AC01B701CE017E
:1005520087579F4F0E947B113FEFE31AF30A80E413
:10056200E816F10419F7E12CF12C3E0199E8690E25
:10057200711CA0E88A2EA701882DB3010E947A126D
:10058200AC01B701CE0101960E947B11A701405E2A
:100592005F4F882DB3010E947A12AC01B701CE01E0
:1005A2008B5B9F4F0E947B11EFEFEE1AFE0AF0E287
:1005B200EF16F10401F79E012B5B3F4FC654DF4F4C
:1005C20039832883CA5BD040CE010196C454DF4FE1
:1005D20099838883CC5BD040F8013696C254DF4FB2
:1005E200F983E883CE5BD040205C3F4FC155DF4F9B
:1005F20039832883CF5AD0408C559F4FCF54DF4F39
:1006020099838883C15BD040FE01E555FF4FCD54ED
:10061200DF4FF983E883C35BD040CF54DF4FF881CB
:10062200C15BD040CE53DF4FF883C25CD040CE5482
:10063200DF4F2881C25BD040CD53DF4F2883C35C9C
:10064200D040412C512CA0E8CB54DF4F88839983B2
:10065200AA83C55BD04022242394312CCD54DF4F92
:1006620088819981C35BD040A0E8CC53DF4F888357
:100672009983AA83C45CD040C654DF4FE881F981D4
:10068200CA5BD040CF01A0E8AE2EB92EFA2EC454D8
:10069200DF4F28813981CC5BD0402C5F3F4FC05463
:1006A200DF4F39832883C05CD04024E030E0AC01C6
:1006B2006A2FC054DF4F88819981C05CD0400E946C
:1006C200461386E0CF54DF4FE881F981C15BD04009
:1006D20011928A95E9F784E0CD54DF4FE881F981E0
:1006E200C35BD04011928A95E9F70F2EFDE1CF2E20
:1006F200F4E0DF2EF0E0EF2EF02D00E010E0CE531C
:10070200DF4F9880C25CD040CD53DF4F8880C35CFE
:10071200D040F6014491E7FC4081FFEFCF1ADF0A97
:10072200EF0A50E0415051096A2D7B2D8F2D0E9416
:100732007A12AC01B801892D982D0E947B110F5FAE
:100742001F4F0033110529F7FE01EB55FF4F9F01A3
:100752002A5F3F4FC254DF4FA881B981CE5BD040A0
:100762008D91908189278193E217F307C9F7C854C5
:10077200DF4F19821882C85BD0400F2EF3E06F2E34
:10078200712CF02DC12CD12CCD54DF4F8880C35B4E
:10079200D040CC54DF4F9880C45BD040892D982C38
:1007A200882E8E0107561F4F78012CE0E20EF11CB5
:1007B200C854DF4FA880B980C85BD040A501CB5494
:1007C200DF4F688179818A81C55BD0400E947A12AD
:1007D200222D332D892B11F4242D352DF80121934F
:1007E20031938F01FFEFAF1ABF0A0E151F0531F7C4
:1007F200C556DF4F88819981CB59D040880F991F08
:10080200C356DF4F28813981CD59D040820F931FC3
:10081200880F991FC156DF4F28813981CF59D040A7
:10082200820F931FC756DF4F28813981C959D040A3
:10083200220F331FCD55DF4F48815981C35AD04013
:10084200240F351F880F991FA6010024569547953E
:100852000794569547950794542F402D840F951F62
:1008620022953295307F3227207F3227820F931FC5
:10087200CF55DF4F28813981C15AD040820F931F53
:10088200092E000CAA0B885D9E4FAF4FFC01E4902D
:10089200A7FDE080F12C1E141F040CF58301C70193
:1008A20081709078992324F401978E6F9F6F01963F
:1008B200422D532D019711F0442D552DB801892D4C
:1008C200982D0E947B11C70199230CF401967C019B
:1008D200F594E794015011091E141F0404F32FEF3D
:1008E200C21AD20A34E0630E711CC854DF4F8881E9
:1008F2009981C85BD0400696C854DF4F998388839C
:10090200C85BD04098E0C916D10409F04ACF0F2E37
:10091200FDE7CF2EF4E0DF2EF0E0EF2EF02D00E029
:1009220010E0CC53DF4F688079808A80C45CD0406D
:10093200F6014491E7FC4081AFEFCA1ADA0AEA0AEB
:1009420050E041505109882DB3010E947A12AC0146
:10095200B801CE0187569F4F0E947B110F5F1F4F38
:100962000032110529F7FE01E756FF4F9F012C5F68
:100972003F4FC454DF4FA881B981CC5BD0408191F5
:100982009C9189278D932E173F07C9F7C654DF4FD5
:10099200E881F981CA5BD0403496C654DF4FF983AF
:1009A200E883CA5BD040C454DF4F28813981CC5BD5
:1009B200D040A90160E824E030E0CF010E94461354
:1009C200C254DF4F88819981CE5BD0400696C254D3
:1009D200DF4F99838883CE5BD040C054DF4FE881DC
:1009E200F981C05CD040C454DF4FF983E883CC5B0B
:1009F200D040C654DF4F28813981CA5BD040C155EF
:100A0200DF4F88819981CF5AD0402817390709F0E2
:100A120033CE00E010E06E0195E8C90ED11CA0E8CB
:100A2200EA2EA8018E2DB6010E947A12AC01B801FD
:100A3200CE018F569F4F0E947B110F5F1F4F0032D6
:100A4200110579F76E01E1E4CE0ED11CF0E8EF2E2C
:100A5200A801405251098E2DB6010E947A12AC01B2
:100A6200B801CE018F569F4F0E947B110F5F1F4F1F
:100A72000034110569F70F2EF8E2CF2EF3E0DF2ED6
:100A8200F0E0EF2EF02D00E010E03E0121E9620ED1
:100A9200711C30E8832EC953DF4FA880B980C75C30
:100AA200D040F6014491E7FC408150E041505109A9
:100AB200882DB3010E947A12AC01B801C5010E94CF
:100AC2007B110F5F1F4F8FEFC81AD80AE80A003454
:100AD200110539F7C853DF4F0FB6F894DEBF0FBECA
:100AE200CDBFDF91CF911F910F91FF90EF90DF90DB
:100AF200CF90BF90AF909F908F907F906F905F90BC
:080B02004F903F902F900895E1
:100B0A002F923F924F926F927F928F929F92AF92C3
:100B1A00BF92CF92DF92EF92FF920F931F93CF93E0
:100B2A00DF93CDB7DEB762970FB6F894DEBF0FBE7C
:100B3A00CDBF6C013A01862E7901FC01108617821D
:100B4A00848181FFE7C19E012F5F3F4F3D872C873C
:100B5A00C901A0E8888B998BAA8B9FE3992EF30190
:100B6A00849187FC8081882309F4D0C1482D9301A0
:100B7A002F5F3F4F4F4F853219F03901842E0AC03B
:100B8A00F901849147FD808192E0690E711C811CF4
:100B9A00853229F4B60190E00E943F11E0CFB12CD2
:100BAA0000E010E01032A0F48B3269F030F48032A9
:100BBA0059F0833269F410612CC08D3239F08033D8
:100BCA0039F4116026C01260146023C0186021C075
:100BDA0017FD29C090ED980F9A3078F416FF06C0D9
:100BEA00AAE0BA9E900D1124B92E13C0EAE00E9F16
:100BFA00900D1124092F10620CC08E3221F416FDBB
:100C0A0085C1106406C08C3611F4106802C088369B
:100C1A0051F4F301849187FC8081FFEF6F1A7F0AF8
:100C2A008F0A8111BFCF982F9F7D9554933028F456
:100C3A0024E0E20EF11C99820FC0833631F083372B
:100C4A0091F0833509F063C027C0F7018081898359
:100C5A0097012E5F3F4F7901288839884A88AA244C
:100C6A00A394B12C17C0A7014D5F5F4F5F874E87D2
:100C7A00F70120803180428016FF03C04B2D50E0DF
:100C8A0002C04FEF5FEF842DB1010E9410135C0187
:100C9A00EE84FF841F7718C097012D5F3F4F3F876F
:100CAA002E87F70120803180428016FF03C04B2D2A
:100CBA0050E002C04FEF5FEF842DB1010E94101384
:100CCA005C011068EE84FF8413FD1DC0802F90E044
:100CDA00A816B906C0F4B60180E290E00E943F115E
:100CEA000150F4CFF101849147FC8081FFEF2F1A64
:100CFA003F0A4F0AB60190E00E943F1101110150CC
:100D0A0021E0A21AB108A114B10461F7F5C0843632
:100D1A0011F0893671F5F70117FF08C060817181FA
:100D2A008281938197012C5F3F4F09C06081718155
:100D3A00072E000C880B990B97012E5F3F4F790104
:100D4A001F76312E97FF0AC0909580957095619510
:100D5A007F4F8F4F9F4F312F3068332E2AE030E07C
:100D6A00AE014F5F5F4F0E94960F482E4C85441A82
:100D7A004AC0853729F41F7EA12E2AE030E025C01B
:100D8A00512F597FA52E8F36C1F018F4883579F086
:100D9A00BDC0803719F0883721F0B8C0852F80612F
:100DAA00A82EA4FE0DC09A2D9460A92E09C014FF86
:100DBA000AC0A52FA660AA2E06C028E030E005C00A
:100DCA0020E130E002C020E132E0F701A7FE08C0CE
:100DDA006081718182819381A7014C5F5F4F07C057
:100DEA006081718180E090E0A7014E5F5F4F7A01D8
:100DFA00AE014F5F5F4F0E94960F482E5C85451AE1
:100E0A008A2D8F77382E36FE0DC0932D9E7FA92E00
:100E1A004B1458F434FE0BC032FC09C0A32DAE7E2D
:100E2A00AA2E05C0142DA32C03C0142D01C01B2DFE
:100E3A00A4FE0EC0FE01E40DF11D8081803321F471
:100E4A00EA2DE97EAE2E08C0A2FE05C01E5F04C0D0
:100E5A008A2D867809F01F5FA3FC11C0A0FE06C088
:100E6A00101788F4040DB02EB11A0EC0101760F4D2
:100E7A00B60180E290E00E943F111F5FF7CF101782
:100E8A0018F4011B02C0B42C00E0A4FE10C0B60185
:100E9A0080E390E00E943F11A2FE17C0A1FC03C0AC
:100EAA0088E790E002C088E590E0B6010CC08A2D80
:100EBA00867859F0A1FE02C08BE201C080E2A7FC4D
:100ECA008DE2B60190E00E943F114B1438F4B6014E
:100EDA0080E390E00E943F11BA94F7CF4A94E1E090
:100EEA00F0E0EC0FFD1FE40DF11D8081B60190E0EA
:100EFA000E943F114110F2CF002309F430CEB6010F
:100F0A0080E290E00E943F110150F6CFF6018781FE
:100F1A00908502C08FEF9FEF62960FB6F894DEBFFE
:100F2A000FBECDBFDF91CF911F910F91FF90EF9030
:100F3A00DF90CF90BF90AF909F908F907F906F90EF
:080F4A004F903F902F90089595
:100F52002F923F924F925F926F927F928F929F92C7
:100F6200AF92BF92CF92DF92EF92FF920F931F93B5
:100F7200CF93DF93CDB7DEB7C55CD1090FB6F89436
:100F8200DEBF0FBECDBF3B01882ECD53DF4F59834D
:100F92004883C35CD040FE01319687E7DF011D9292
:100FA2008A95E9F7E958FF4F84E4DF011D928A959B
:100FB200E9F786E6CD53DF4FE881F981C35CD04083
:100FC20011928A95E9F70F2EF5EECF2EF3E0DF2E80
:100FD200F0E0EF2EF02D00E010E0F6014491E7FC86
:100FE200408150E041505109882DB3010E947A128C
:100FF200AC01B801CE0184549F4F0E947B110F5F58
:101002001F4FFFEFCF1ADF0AEF0A0833110529F746
:1010120000E010E06E018CEBC80ED11C90E8E92EC6
:10102200A8018E2DB6010E947A12AC01B801CE0140
:1010320001960E947B11A801445E5F4F8E2DB6017E
:101042000E947A12AC01B801CE0188589F4F0E94CB
:101052007B110F5F1F4F0C31110511F70F2EF2ECB0
:101062006F2EF4E07F2EF0E08F2EF02DBE016F5F29
:101072007F4F7E01A8E7EA0EF11C2E01B1E74B0E6D
:10108200511C1B01E7E02E0E311CF301C49087FCBA
:10109200C080D12C80E8810196014CE150E00E9491
:1010A200970D5701F4E0AF0EB11CB70180E885013E
:1010B20096014CE150E00E94970D8FEF681A780A72
:1010C200880AB101750124143504D9F64E0198E756
:1010D200890E911C5401A4E0AA0EB11C6E01B8E065
:1010E200CB0ED11C2401760124C0A8014C51510918
:1010F200882DB3010E947A12AC01B801C7010E9487
:101102007B110F5F1F4F0833110579F7E4E0AE0E34
:10111200B11CF7E0EF0EF11C4E145F0451F4CD53F5
:10112200DF4F28803980C35CD04086E0280E311C16
:101132002EC00CE110E0350190E8892ED6CFF301E4
:10114200449187FC408150E041505109CD53DF4F1B
:10115200688179818A81C35CD0400E947A12AC0195
:10116200B8018E2D9F2D0E947B110F5F1F4FAFEF95
:101172006A1A7A0A8A0A0033110509F7B7E0CB0E18
:10118200D11CE6E02E0E311C4C145D04B1F0E22CB1
:10119200F32C0F2EFDE46F2EF4E07F2EF0E08F2E65
:1011A200F02D00E010E0C601A0E8CD53DF4F8883A8
:1011B2009983AA83C35CD040C2CFCB53DF4F0FB613
:1011C200F894DEBF0FBECDBFDF91CF911F910F917B
:1011D200FF90EF90DF90CF90BF90AF909F908F9055
:0E11E2007F906F905F904F903F902F900895F8
:1011F0000F931F93CF93DF938230910510F482E019
:1012000090E0E0917100F091720020E030E0A0E009
:10121000B0E0309719F14081518102811381481764
:101220005907C8F08417950769F4109731F01296A2
:101230000C93129713961C9327C000937100109380
:10124000720022C02115310519F04217530718F416
:101250009A01BD01EF01DF01F801DBCF2115310556
:10126000F9F0281B390B2430310580F48A819B81E9
:101270006115710521F0FB019383828304C0909373
:10128000720080937100FE01329644C0FE01E20FAD
:10129000F31F8193919322503109398328833AC0F7
:1012A00020916F0030917000232B41F42091930026
:1012B000309194003093700020936F002091910042
:1012C000309192002115310541F42DB73EB7409180
:1012D000950050919600241B350BE0916F00F09122
:1012E0007000E217F307A0F42E1B3F0B28173907F5
:1012F00078F0AC014E5F5F4F2417350748F04E0F72
:101300005F1F5093700040936F008193919302C0D0
:10131000E0E0F0E0CF01DF91CF911F910F910895B0
:10132000CF93DF93009709F481C0FC0132971382B9
:101330001282A0917100B0917200109781F4208107
:101340003181820F931F20916F0030917000281718
:10135000390751F5F0937000E0936F0067C0ED011D
:1013600020E030E0CE17DF0740F44A815B819E0128
:1013700041155105F1F0EA01F5CFD383C2834081D5
:101380005181840F951FC817D90759F48881998115
:10139000840F951F0296918380838A819B8193831A
:1013A00082832115310529F4F0937200E0937100D6
:1013B0003DC0E901FB83EA8349915991C40FD51FD0
:1013C000EC17FD0761F480819181840F951F0296CF
:1013D000E90199838883828193819B838A83E0E0FA
:1013E000F0E012968D919C911397009719F0FD01F2
:1013F000DC01F7CF8D919C9111979D012E5F3F4F9E
:10140000820F931F20916F003091700028173907C9
:1014100069F4309729F4109272001092710002C0A2
:1014200013821282B0937000A0936F00DF91CF916E
:0214300008951D
:101432002F923F924F925F926F927F928F929F92E2
:10144200AF92BF92CF92DF92EF92FF920F931F93D0
:10145200CF93DF93CDB7DEB7C659D1090FB6F89453
:10146200DEBF0FBECDBF3B01882E6901E42E0E9474
:10147200DF1360E070E080E090E00E94C3139E0101
:101482002F5F3F4F48E050E0882DB3010E94380F94
:101492008BE495E4CF57DF4F99838883C158D040BE
:1014A20089E590E0CD57DF4F99838883C358D040B8
:1014B200CE018F579F4F0E94B41360E070E081E02D
:1014C20090E00E94C313CE0101960E94B4132FEF45
:1014D20089E698E1215080409040E1F700C0000089
:1014E2004E2D9601882DB3010E94040E6B017C01E2
:1014F20057011B0120E8422E9E012F5F3F4FA7019B
:10150200842DB1010E94380F20EB34E040E089E0E5
:10151200F901DE01AB57BF4F742F0E94D21360E076
:1015220070E080E090E00E94C313CE018B579F4F82
:101532000E94B41360E070E081E090E00E94C31367
:10154200CE0101960E94B4138FEF99E628E18150F3
:1015520090402040E1F700C000008701442D910136
:10156200882DB3010E94B80C2B013C01430180E895
:101572009E012F5F3F4FA3010E94380F29EB34E0F9
:1015820040E089E0F901DE01A257BF4F742F0E94AB
:10159200D21360E070E080E090E00E94C313CE01BD
:1015A20082579F4F0E94B41360E070E081E090E0A8
:1015B2000E94C313CE0101960E94B411892B51F0EF
:1015C200CE0101960E941A0B8C010E94B413C8012D
:1015D2000E9490098FEF9DE329E4815090402040C2
:1015E200E1F700C000001A141B041CF4C6010E949B
:1015F2009009181419041CF4C2010E949009CA56D9
:10160200DF4F0FB6F894DEBF0FBECDBFDF91CF9193
:101612001F910F91FF90EF90DF90CF90BF90AF900E
:101622009F908F907F906F905F904F903F902F9000
:02163200089519
:101634004F925F926F927F928F929F92AF92BF92DE
:10164400CF92DF92EF92FF920F931F93CF93DF938A
:101654003C01BC0180E80E948D13EC0118161906A8
:101664000CF080C05C0121E0A22220E8B222BB2061
:1016740054F4E1E0AE1AB108FEEFAF2ABB24BA94E9
:101684002FEFA21AB20AE1E0AE16B10461F42E0102
:1016940099231CF4FFEF4F1A5F0A559447942FEFD8
:1016A400421A520A08C02E0199231CF48FEF481ADB
:1016B400580A55944794C20101960E94F8084C01B7
:1016C40021970AF449C07301EC0EFD1E00E010E0FE
:1016D40000FF2EC0F70180810E94F40F6C01F70116
:1016E40081810E94F40FCC0CDD1CCC0CDD1CCC0CD5
:1016F400DD1CCC0CDD1CC80ED91EF1E0AF16B10404
:1017040059F4CE01DD230CF4019695958795F401E7
:10171400E80FF91FC18215C09E01DD2314F42F5F69
:101724003F4F35952795F401E20FF31FC08209C09E
:10173400209739F4F30180810E94F40FF40180832F
:101744000BC021970F5F1F4FF1E0EF1AF108CF3F55
:101754002FEFD20709F0BCCFF401E40DF51D8AE0A8
:10176400808302C0812C912CC401DF91CF911F9101
:101774000F91FF90EF90DF90CF90BF90AF909F902C
:0C1784008F907F906F905F904F900895C1
:10179000452BC9F181309105A9F01CF4892B39F052
:1017A000089582309105C9F0039711F108952AB385
:1017B00081E090E002C0880F991F6A95E2F7822BC2
:1017C0008ABB089527B381E090E002C0880F991F7B
:1017D0006A95E2F7822B87BB089524B381E090E0FD
:1017E00002C0880F991F6A95E2F7822B84BB089587
:1017F00021B381E090E002C0880F991F6A95E2F75B
:10180000822B81BB089581309105B1F01CF4892BA6
:1018100039F0089582309105D9F0039729F10895A0
:101820002AB381E090E002C0880F991F6A95E2F721
:10183000809582238ABB089527B381E090E002C09F
:10184000880F991F6A95E2F78095822387BB0895D8
:1018500024B381E090E002C0880F991F6A95E2F7F7
:101860008095822384BB089521B381E090E002C07B
:10187000880F991F6A95E2F78095822381BB0895AE
:10188000452BC9F181309105A9F01CF4892B39F061
:10189000089582309105C9F0039711F108952BB393
:1018A00081E090E002C0880F991F6A95E2F7822BD1
:1018B0008BBB089528B381E090E002C0880F991F88
:1018C0006A95E2F7822B88BB089525B381E090E00A
:1018D00002C0880F991F6A95E2F7822B85BB089595
:1018E00022B381E090E002C0880F991F6A95E2F769
:1018F000822B82BB089581309105B1F01CF4892BB5
:1019000039F0089582309105D9F0039729F10895AF
:101910002BB381E090E002C0880F991F6A95E2F72F
:10192000809582238BBB089528B381E090E002C0AC
:10193000880F991F6A95E2F78095822388BB0895E6
:1019400025B381E090E002C0880F991F6A95E2F705
:101950008095822385BB089522B381E090E002C088
:10196000880F991F6A95E2F78095822382BB0895BC
:10197000AF92BF92CF92DF92EF920F931F93CF93CC
:10198000DF93CDB7DEB7C656D1090FB6F894DEBFE8
:101990000FBECDBF6901E42EAE014F5F5F4F0E94C5
:1019A000A907BE01695F7F4FAE014F595F4F5E01CE
:1019B00081E3A80EB11C0EC08C9190819D93819300
:1019C000E217F307C9F76A5F7F4F465051094A157E
:1019D0005B0531F09A012A5F3F4FFA01DB01ECCF42
:1019E000C8010E94F8085C0198016E2DA6010E94B2
:1019F00046131016110694F4C12CD12C95012C0D10
:101A00003D1DB90180E8AE014F5F5F4F0E94690242
:101A100088E0C80ED11CC016D10684F3F501E00F92
:101A2000F11F31972081B501C801821B9109CA5964
:101A3000DF4F0FB6F894DEBF0FBECDBFDF91CF9161
:101A40001F910F91EF90DF90CF90BF90AF900895CE
:101A500010C00E94FE1358F00E94F71340F029F4C2
:101A60005F3F29F00C941A1451110C9406140C9435
:101A70002E140E94D21268F39923B1F3552391F3E7
:101A8000951B550BBB27AA2762177307840738F0ED
:101A90009F5F5F4F220F331F441FAA1FA9F335D04A
:101AA0000E2E3AF0E0E832D091505040E695001CFE
:101AB000CAF72BD0FE2F29D0660F771F881FBB1FB8
:101AC000261737074807AB07B0E809F0BB0B802D96
:101AD000BF01FF2793585F4F3AF09E3F510578F0C2
:101AE0000C941A140C9406145F3FE4F3983ED4F35C
:101AF000869577956795B795F7959F5FC9F7880F96
:101B0000911D9695879597F90895E1E0660F771FE7
:101B1000881FBB1F621773078407BA0720F0621B78
:0E1B2000730B840BBA0BEE1F88F7E095089547
:101B2E002F923F924F925F926F927F928F92AF92CF
:101B3E00BF92CF92DF92EF92FF920F931F93CF93AC
:101B4E00DF933B01882E7A012901552384F0C0E0F2
:101B5E00D0E0AE01882DB3010E947A12AC01BE0115
:101B6E00C8010E947B112196EC16FD0694F7141401
:101B7E0015048CF5CC24C394D12C380180E8882E22
:101B8E00170181E0281A310840E050E0882DB3019A
:101B9E000E947A125C011E141F0494F4C1E0D0E07E
:101BAE00AE01882DB3010E947A12BE0161507109F7
:101BBE00AC01C8010E947B112196EC16FD0684F73C
:101BCE00A501B101C8010E947B118FEFC81AD80A76
:101BDE004C145D04CCF6DF91CF911F910F91FF90C5
:101BEE00EF90DF90CF90BF90AF908F907F906F90DF
:0A1BFE005F904F903F902F900895E4
:101C08006F927F928F92AF92BF92CF92DF92EF92B4
:101C1800FF920F931F93CF93DF93CDB7DEB7C656CE
:101C2800D1090FB6F894DEBF0FBECDBF3901842E9F
:101C3800AE014F5F5F4F0E94A907C8018770907877
:101C4800992324F40197886F9F6F019628E0A22EAC
:101C5800A81AB12C7801EA0CFB1CC7010E94F808ED
:101C68006C019801682DA3010E944613A501B501D6
:101C7800C601800F911F0E940C141E141F048CF4BF
:101C880000E010E09601200F311FB90180E8AE0195
:101C98004F5F5F4F0E946902085F1F4F0E151F05B7
:101CA8008CF3B601C701CA59DF4F0FB6F894DEBFEF
:101CB8000FBECDBFDF91CF911F910F91FF90EF9095
:101CC800DF90CF90BF90AF908F907F906F900895E6
:101CD80011C00E94F71338F00E94FE1320F039F467
:101CE8009F3F19F426F40C942E140EF4E095E7FBAC
:101CF8000C941A14E92F0E94D21258F3BA176207EB
:101D080073078407950720F079F4A6F50C94051459
:101D18000EF4E0950B2EBA2FA02D0B01B9019001FE
:101D28000C01CA01A0011124FF27591B99F0593F42
:101D380050F4503E68F11A16F040A22F232F342F8A
:101D48004427585FF3CF469537952795A795F040D8
:101D58005395C9F77EF41F16BA0B620B730B840BED
:101D6800BAF09150A1F0FF0FBB1F661F771F881FA5
:101D7800C2F70EC0BA0F621F731F841F48F48795FD
:101D880077956795B795F7959E3F08F0B0CF9395EF
:0E1D9800880F08F09927EE0F9795879508950C
:101DA600CF93DF93CDB7DEB7AB970FB6F894DEBF10
:101DB6000FBECDBF41E050E061E070E080E895E203
:101DC6000E94E9110E9489102DE934E040E088E084
:101DD600F901DE011196742F0E94D21325EA34E030
:101DE60040E08BE0F901DE011996742F0E94D213B0
:101DF600CE0101960E94B4132FEF83ED90E321509C
:101E060080409040E1F700C000000E94DF13CE0141
:101E160009960E94B41360E070E081E090E00E94B1
:101E2600C3137894CE0144965C0180E690E06C0181
:101E360020E8E22E350180E8882E80919700909167
:101E460098008F309105E9F788E1E9E7F0E0D501E0
:101E560001900D928A95E1F70FE010E04E2D960164
:0A1E6600882DB3010E94190AE8CF8D
:101E70006F927F928F92CF92DF92EF92FF920F93A9
:101E80001F93CF93DF933B01882E8A0179011416AB
:101E900015060CF03DC0E901A82FCB01640E751E9C
:101EA000811C57FD8A9460E0482F292F5A2FFC018E
:101EB0003491A7FD308132953F703A3010F4305D97
:101EC00007C076EF730F763010F4395C01C0362FFF
:101ED0006E0138830196A11DE42FF22F349157FD36
:101EE00030813F703A3010F4305D07C026EF230F89
:101EF000263010F4395C01C0362FF601318322966A
:101F000086159705A80581F6000F111FE00EF11E3A
:101F1000F7011082DF91CF911F910F91FF90EF9009
:0C1F2000DF90CF908F907F906F9008951D
:101F2C00FA01AA27283051F1203181F1E8946F93FE
:101F3C006E7F6E5F7F4F8F4F9F4FAF4FB1E03ED0A4
:101F4C00B4E03CD0670F781F891F9A1FA11D680F42
:101F5C00791F8A1F911DA11D6A0F711D811D911D75
:101F6C00A11D20D009F468943F912AE0269F1124EA
:101F7C003019305D3193DEF6CF010895462F47704E
:101F8C00405D4193B3E00FD0C9F7F6CF462F4F70A9
:101F9C00405D4A3318F0495D31FD4052419302D007
:101FAC00A9F7EACFB4E0A6959795879577956795AD
:101FBC00BA95C9F700976105710508959B01AC01AD
:101FCC000A2E06945795479537952795BA95C9F7D4
:0C1FDC00620F731F841F951FA01D089545
:101FE800482F50E0FA01F097E733F10588F5E65DF0
:101FF800FF4F0C94201481E090E0089582E090E077
:10200800089583E090E0089584E090E0089585E0E5
:1020180090E0089586E090E0089587E090E00895C4
:1020280088E090E0089589E090E008958AE090E0E3
:1020380008958BE090E008958CE090E008958DE09D
:1020480090E008958EE090E008958FE090E0089584
:102058001F928F9388EA93E0A0E0AF939F938F93AA
:102068000E9476130F900F900F900F900F908FEFA4
:0A2078009FEF089580E090E00895C6
:10208200CF92DF92EF920F931F93CF93DF93E09162
:102092007500F0917600948191FF2DC06B01E82EBE
:1020A200D0E0C0E003E710E0F6018491E7FC808114
:1020B2008823A1F0D80112966D917C911397DB01D0
:1020C2001996ED91FC911A970995892B11F0DFEF82
:1020D200CFEFBFEFCB1ADB0AEB0AE6CF60917500B8
:1020E20070917600DB011996ED91FC911A978AE0C6
:1020F2000995892B19F08FEF9FEF02C08D2F9C2F2E
:10210200DF91CF911F910F91EF90DF90CF900895C3
:102112008AB3806F8ABB41E050E061E070E081E009
:1021220090E00E94C80B41E050E062E070E081E084
:1021320090E00E94C80B41E050E063E070E081E073
:1021420090E00E94C80B40E050E062E070E081E065
:1021520090E00E94400C0E94DF1382E00E941A125B
:1021620088E20E941A128CE00E941A1286E00E94F3
:102172001A120E94DF132FEF80E792E02150804075
:0A2182009040E1F700C0000008954E
:10218C00E89409C097FB3EF4909580957095619505
:10219C007F4F8F4F9F4F9923A9F0F92F96E9BB27BB
:1021AC009395F695879577956795B795F111F8CF37
:1021BC00FAF4BB0F11F460FF1BC06F5F7F4F8F4FA2
:1021CC009F4F16C0882311F096E911C0772321F098
:1021DC009EE8872F762F05C0662371F096E8862F30
:1021EC0070E060E02AF09A95660F771F881FDAF787
:0A21FC00880F9695879597F90895CE
:102206001F920F920FB60F9211242F933F934F9365
:102216005F936F937F938F939F93AF93BF93CF9368
:10222600DF93EF93FF93C0919700D09198000E949F
:102236002614C05ADF4F88830E9426140E94A712D4
:1022460080919700909198000196909398008093C2
:102256009700FF91EF91DF91CF91BF91AF919F9141
:102266008F917F916F915F914F913F912F910F9039
:082276000FBE0F901F90189598
:10227E000F931F93CF93DF93FB01248121FD03C0A6
:10228E008FEF9FEF2CC022FF16C04781508525810E
:10229E0036814217530744F4A081B1819D012F5F0F
:1022AE003F4F318320838C93278130852F5F3F4FA3
:1022BE003087278314C08B01EC01FB010184F2856A
:1022CE00E02D0995892BE1F6D80117968D919C91F9
:1022DE001897019618969C938E931797CE01DF91BF
:0822EE00CF911F910F9108959B
:1022F6009B01772314F4295F3F4F35952795359534
:1023060027953595279567707078772334F4615053
:102316007109686F7F6F6F5F7F4FE7E0F0E0DF0165
:10232600A61BB70B452B79F4FC01E20FF31F81E0E6
:1023360090E002C0880F991FAA95E2F780959081D8
:10234600892380830895FC01E20FF31F81E090E06A
:1023560002C0880F991FAA95E2F79081892B808386
:022366000895D8
:10236800CF93DF93EC0186EC93E0A0E0AF939F93CB
:102378008F930E94761388810F900F900F90882377
:10238800D1F090E00E9413149991973430F491346D
:1023980078F490539A3060F003C09156963040F02C
:1023A80063ED73E080E00E94411080E090E00AC095
:1023B80088818111E6CF6EED73E080E00E944110C4
:0A23C80081E090E0DF91CF910895CD
:1023D2009B016AB122953295307F3227207F3227C6
:1023E200262B2AB92AB1440F551F440F551F440FFB
:1023F200551F422B4AB9579ABC01990F880B990B6A
:102402000E94C8109B01AC0160E074E284E799E489
:102412000E942A1420E030E040E85FE30E94E913C2
:102422000E94F01369B96F3F710511F00CF070BD95
:0224320008950B
:10243400CF93C82F40E050E061E070E081E090E08D
:102444000E94400C8BB38F709C2F907F892B8BBB89
:102454000E945F132FEF30E782E02150304080402C
:10246400E1F700C000008BB3282F2F7030E1C39F29
:10247400C0011124822B8BBB0E945F138FEF90E766
:1024840022E0815090402040E1F700C00000CF914D
:022494000895A9
:102496000E94DA1288F09F5798F0B92F9927B75102
:1024A600B0F0E1F0660F771F881F991F1AF0BA95F2
:1024B600C9F714C0B13091F00E940514B1E0089537
:1024C6000C940514672F782F8827B85F39F0B93F29
:1024D600CCF3869577956795B395D9F73EF49095A5
:0E24E6008095709561957F4F8F4F9F4F0895A1
:1024F4009A01552314F4295F3F4F35952795359557
:10250400279535952795A82FCB01820F931FA11DE1
:1025140037FDAA95FC018491A7FD808190E0477066
:102524005078552334F441505109486F5F6F4F5F21
:102534005F4F27E030E0241B350B02C0959587954B
:0A2544002A95E2F7817099270895A7
:10254E00CF93C82F41E050E061E070E081E090E071
:10255E000E94400C8BB38F709C2F907F892B8BBB6E
:10256E000E945F138FE99FE00197F1F700C0000012
:10257E008BB3282F2F7030E1C39FC0011124822B03
:10258E008BBB0E945F138FE99FE00197F1F700C0AC
:06259E000000CF9108953A
:1025A40057FD9058440F551F59F05F3F71F0479500
:1025B400880F97FB991F61F09F3F79F087950895E5
:1025C400121613061406551FF2CF4695F1DF08C004
:1025D400161617061806991FF1CF86957105610521
:0425E40008940895BA
:1025E8002F923F924F925F926F927F928F929F921B
:1025F800AF92BF92CF92DF92EF92FF920F931F9309
:10260800CF93DF93CDB7DEB7CA1BDB0B0FB6F894B9
:08261800DEBF0FBECDBF099427
:10262000CF92DF92EF926B01E82EA82FCB014115DC
:10263000510531F48C199D09EF90DF90CF900895EA
:10264000FC012491A7FD20812223A1F30196A11D65
:0626500041505109ECCFDE
:102656002A88398848885F846E847D848C849B842C
:10266600AA84B984C884DF80EE80FD800C811B813A
:10267600AA81B981CE0FD11D0FB6F894DEBF0FBE69
:06268600CDBFED01089537
:10268C00CF92DF92EF92DC016A01E62E280F391F00
:10269C00A217B30751F0F6014491E7FC40814D932A
:1026AC004FEFC41AD40AE40AF3CFEF90DF90CF9027
:0226BC0008957F
:1026BE0041E050E063E070E081E090E00E94400C69
:1026CE008FE99FE00197F1F700C0000040E050E075
:0E26DE0063E070E081E090E00E94400C0895FF
:1026EC00A0E0B0E0ECE7F3E10C9404139E012B5F47
:1026FC003F4FF9014191519161919F01809175007A
:0E270C00909176000E948505E2E00C943B134C
:10271A00CF92DF92EF926B01E82EA82FCB01FC013A
:10272A002491A7FD2081222319F00196A11DF7CF3C
:0C273A008C199D09EF90DF90CF9008955E
:10274600092E0394000C11F4882352F0BB0F40F4B9
:10275600BF2B11F460FF04C06F5F7F4F8F4F9F4FF9
:022766000895D4
:10276800CF93DF93EC018881882331F021960E9472
:0E277800A71289918111FBCFDF91CF910895B7
:10278600009719F0019731F00895862F80680E940E
:0E2796001A120895862F806C0E941A12089560
:1027A400992777FD05C005900D920197E1F70895EB
:0A27B40001900D920197E1F70895DE
:1027BE0081E00E941A128FE19EE40197F1F700C0AA
:0427CE00000008956A
:0E27D2005058BB27AA270E946C0E0C94A3132C
:0E27E0000E944B126894B1110C9406140895D7
:0E27EE0000240A941616170618060906089508
:0E27FC0000240A94121613061406050608950A
:0E280A00E894BB2766277727CB0197F908953E
:0E281800DC0101C06D9341505040E0F708957F
:0E28260060917500709176000E943F11089538
:0C28340097F99F6780E870E060E008956D
:0C284000EE0FFF1F0590F491E02D0994AD
:08284C005F9BFECF8CB10895E3
:082854000E94280D0C94A3134F
:06285C009FEF80EC0895DF
:042862000C940000D2
:10286600133457799BBCDFF10E329232EA6D0D7349
:082876000E329232EA6D0D737F
:06287E000000990020009B
:00000001FF
